:100000001CC088C135C034C033C032C031C030C01C
:10001000F9C10FC12DC02CC02BC02AC029C028C0D7
:1000200027C026C025C02DC036C03FC04BC054C01D
:1000300060C06CC075C07EC084C011241FBECFE5F7
:10004000D4E0DEBFCDBF10E0A0E6B0E0E6E1F7E02F
:1000500002C005900D92A236B107D9F720E0A2E6C2
:10006000B0E001C01D92A637B207E1F7E2D151C35B
:10007000C7CF8A30910508F06DC0FC01ED5EFF4FDF
:10008000099482B38F7B82BB85B38F6085BB82B3BB
:10009000806382BB089585B3867F85BB85B3866008
:1000A00085BB82B38F7882BB089585B38B7F85BB78
:1000B00085B38B6085BB82B3806582BB82B38F7D45
:1000C00082BB089582B38F7C82BB85B38F6085BB72
:1000D00082B3806482BB089585B3867F85BB85B378
:1000E000866085BB82B3806682BB82B38F7E82BB13
:1000F000089585B38D7F85BB85B38D6085BB82B345
:10010000806682BB82B38F7E82BB089585B38D7F6C
:1001100085BB85B38D6085BB82B3806782BB089544
:1001200085B3877F85BB85B3876085BB82B38F78B6
:1001300082BB089585B38F6085BB82B3806782BB25
:10014000089585B38F6085BB82B3806682BB82B31E
:100150008F7E82BB0895CF93DF93AC01EC01D695DF
:10016000C795D695C795D695C7959E01A5ECB0E2E3
:10017000C4D2FC01F295E295EF70EF27FF70EF27F4
:10018000F0937500E093740028EE33E0E29FC00125
:10019000E39F900DF29F900D11249A01281B390BBB
:1001A0003695279536952795ABE7B4E1A6D2969577
:1001B000879590937300809372009A0136952795E6
:1001C000369527959AD29C013695279564E6629FCD
:1001D000C001639F900D11249A01281B390BADECCF
:1001E000BCEC8BD296958795969587959695879535
:1001F00090937100809370009A017FD296958795B5
:1002000096958795969587959C01220F331F880FA9
:10021000991F880F991F880F991F820F931F9A01AA
:10022000281B390B30936F0020936E00DF91CF9124
:1002300008951F920F920FB60F9211242F933F93A0
:100240004F935F936F937F938F939F93AF93BF93DE
:10025000EF93FF93809160009091610001969093DD
:10026000610080936000059734F081E090E0909306
:100270006100809360008091600090916100813006
:10028000910561F488B3886388BB88B38B7F88BB92
:100290008091740090917500ECDE2BC08230910546
:1002A00061F488B3846388BB88B3877F88BB8091FF
:1002B000720090917300DDDE1CC08330910561F403
:1002C00088B38C6288BB88B38F7E88BB80917000B6
:1002D00090917100CEDE0DC0049759F488B38C6103
:1002E00088BB88B38F7D88BB80916E0090916F0032
:1002F000C0DEFF91EF91BF91AF919F918F917F9160
:100300006F915F914F913F912F910F900FBE0F9082
:100310001F9018951F920F920FB60F9211242F93D2
:100320003F934F935F936F937F938F939F93AF937D
:10033000BF93EF93FF932CB53DB580916C009091E6
:100340006D00A0E0B0E0DC0199278827820F931FA1
:10035000A11DB11D409168005091690060916A0033
:1003600070916B00840F951FA61FB71F80936800C4
:1003700090936900A0936A00B0936B001DBC1CBCF5
:1003800010926D0010926C00809166009091670051
:10039000019690936700809366000A9714F160912C
:1003A00068007091690080916A0090916B0017D18C
:1003B00020E030E040E251E47ED060936200709330
:1003C000630080936400909365001092680010921F
:1003D000690010926A0010926B00109267001092F0
:1003E0006600FF91EF91BF91AF919F918F917F91A7
:1003F0006F915F914F913F912F910F900FBE0F9092
:100400001F9018951F920F920FB60F9211248F9381
:100410009F9380916C0090916D00019690936D0078
:1004200080936C009F918F910F900FBE0F901F9043
:10043000189584B38F6084BB85B3807F85BB81B3FF
:10044000806F81BB82B3807F82BB87B38C6387BBA5
:1004500088B38C6388BB81B38B7F81BB82B384609C
:1004600082BB83B7826083BF12BE89B7816089BFB8
:100470008EB581608EBD1DBC1CBC89B7846089BFF0
:1004800085B7826085BF85B78E7F85BF8BB7806457
:100490008BBF78942091620030916300409164009A
:1004A0005091650060E074E284EF9AE404D06BD070
:1004B000CB0151DEEFCF0CD0E6C0DED040F0D5D07E
:1004C00030F021F45F3F19F0C7C0511110C1CAC00C
:1004D000EBD098F39923C9F35523B1F3951B550B32
:1004E000BB27AA2762177307840738F09F5F5F4F07
:1004F000220F331F441FAA1FA9F333D00E2E3AF048
:10050000E0E830D091505040E695001CCAF729D061
:10051000FE2F27D0660F771F881FBB1F26173707B0
:100520004807AB07B0E809F0BB0B802DBF01FF27E0
:1005300093585F4F2AF09E3F510568F08DC0D7C099
:100540005F3FECF3983EDCF3869577956795B7951A
:10055000F7959F5FC9F7880F911D9695879597F935
:100560000895E1E0660F771F881FBB1F62177307AE
:100570008407BA0720F0621B730B840BBA0BEE1FC3
:1005800088F7E095089598D088F09F5790F0B92F9C
:100590009927B751A0F0D1F0660F771F881F991FD8
:1005A0001AF0BA95C9F712C0B13081F09FD0B1E00E
:1005B00008959CC0672F782F8827B85F39F0B93F1E
:1005C000CCF3869577956795B395D9F73EF49095DA
:1005D0008095709561957F4F8F4F9F4F0895E89458
:1005E00009C097FB3EF490958095709561957F4F7B
:1005F0008F4F9F4F9923A9F0F92F96E9BB27939529
:10060000F695879577956795B795F111F8CFFAF438
:10061000BB0F11F460FF1BC06F5F7F4F8F4F9F4F69
:1006200016C0882311F096E911C0772321F09EE8C7
:10063000872F762F05C0662371F096E8862F70E02D
:1006400060E02AF09A95660F771F881FDAF7880F07
:100650009695879597F9089597F99F6780E870E0D8
:1006600060E008959FEF80EC089500240A94161628
:10067000170618060906089500240A941216130690
:10068000140605060895092E0394000C11F488231E
:1006900052F0BB0F40F4BF2B11F460FF04C06F5F3A
:1006A0007F4F8F4F9F4F089557FD9058440F551F10
:1006B00059F05F3F71F04795880F97FB991F61F0E4
:1006C0009F3F79F087950895121613061406551F5B
:1006D000F2CF4695F1DF08C0161617061806991FC7
:1006E000F1CF86957105610508940895E894BB27BC
:1006F00066277727CB0197F90895A29FB001B39F92
:10070000C001A39F01D0B29F700D811D1124911DC6
:060710000895F894FFCFEC
:020716000100E0
:00000001FF
